:060000000A128A11F62F1E
:100DE80001340A128A11FE260A128A118316031385
:100DF8000612080083160313060807388600080839
:100E0800F039880081138312031388150815881494
:100E1800081408000A128A11F5260A128A110130EC
:100E28000A128A1127270A128A11F4007403031D73
:100E38001E2F1F2F132F1030831203138606132F14
:100E48000A128A110028F2000A128A114A270A1285
:100E58008A11F3007208031D322F332F352F7308C0
:100E6800492F730A0319392F3A2F412F750803198F
:100E78003E2F3F2F412FF501332F730A031D452FB6
:100E8800462F482FF501F50AFF3008008312031397
:100E980088110815881408146430F0000030F10037
:100EA800FF30F0070318F10AFF30F107700A031D3D
:100EB800612F710A031D612F622F542F83120313B0
:100EC8000618672F682F6A2F0130F52F86186D2FA7
:100ED8006E2F702F0230F52F0619732F742F762F6F
:100EE8000330F52F88150811881408146430F000B1
:100EF8000030F100FF30F0070318F10AFF30F10766
:100F0800700A031D8B2F710A031D8B2F8C2F7E2FC8
:100F1800831203130618912F922F942F0430F52F64
:100F28008618972F982F9A2F0530F52F06199D2F81
:100F38009E2FA02F0630F52F881508158810081445
:100F48006430F0000030F100FF30F0070318F10AB8
:100F5800FF30F107700A031DB52F710A031DB52F65
:100F6800B62FA82F831203130618BB2FBC2FBE2F32
:100F78000730F52F8618C12FC22FC42F0830F52F40
:100F88000619C72FC82FCA2F0930F52F881508153D
:100F9800881408106430F0000030F100FF30F007CA
:100FA8000318F10AFF30F107700A031DDF2F710AD9
:100FB800031DDF2FE02FD22F831203130618E52F0E
:100FC800E62FE82F2A30F52F8618EB2FEC2FEE2F7F
:100FD8000030F52F0619F12FF22FF42F2330F52FBB
:100FE800FF3008000A128A11F4260A128A11F50045
:080FF80083010A128A110E2F79
:08400000FF3FFF3FFF3FFF3FC0
:02400E00FB3F76
:00000001FF
