:100000000A128A11FC2F00308A000408840A820731
:1000100000344B3445345934503441344434003482
:100BC600F8308316031386000F3083120313860052
:100BD6007F308316031381000730831203138605C3
:100BE6000800F200720883120313870008148814A1
:100BF6000A30F100BC30F000F00BFF2DF10BFF2D99
:100C060000008312031388100800F2007208831292
:100C160003138700081088140A30F100BC30F00076
:100C2600F00B132EF10B132E000083120313881002
:100C36000800F5012D2E7508730784000A128A1123
:100C460003200A128A110A128A11F4250A128A113D
:100C56000130F50774087502031C322E332E1E2E42
:100C6600080038300A128A1108260A128A1106303C
:100C76000A128A1108260A128A110C300A128A11DF
:100C860008260A128A1101300A128A1108260A1247
:100C96008A11080083160313870188010A128A1134
:100CA60034260A128A1180300A128A1108260A127C
:100CB6008A110130F3000730F4000A128A111C264B
:100CC6000A128A110A128A11E3250A128A11C03001
:100CD6000A128A1108260A128A110A128A11852610
:100CE6000A128A110230FC008630FB009930FA00A5
:100CF600FA0B7B2EFB0B7B2EFC0B7B2E702E0A1227
:100D06008A11002883120313061086140615861905
:100D16008D2E8E2EA62E31300A128A11F4250A1235
:100D26008A1183120313861D992E9A2E942E023051
:100D3600F5008630F4009930F300F30BA02EF40B87
:100D4600A02EF50BA02E83120313061AAB2EAC2E83
:100D5600C42E34300A128A11F4250A128A1183121B
:100D66000313061EB72EB82EB22E0230F5008630BB
:100D7600F4009930F300F30BBE2EF40BBE2EF50BE8
:100D8600BE2E83120313861AC92ECA2EE22E3730C0
:100D96000A128A11F4250A128A1183120313861E77
:100DA600D52ED62ED02E0230F5008630F40099309E
:100DB600F300F30BDC2EF40BDC2EF50BDC2E83128A
:100DC6000313061BE72EE82E002F2A300A128A117B
:100DD600F4250A128A1183120313061FF32EF42E2A
:100DE600EE2E0230F5008630F4009930F300F30B56
:100DF600FA2EF40BFA2EF50BFA2E831203130614B1
:100E0600861006158619082F092F212F32300A124F
:100E16008A11F4250A128A1183120313861D142FD0
:100E2600152F0F2F0230F5008630F4009930F300AD
:100E3600F30B1B2FF40B1B2FF50B1B2F8312031326
:100E4600061A262F272F3F2F35300A128A11F4252E
:100E56000A128A1183120313061E322F332F2D2FE7
:100E66000230F5008630F4009930F300F30B392F89
:100E7600F40B392FF50B392F83120313861A442FDF
:100E8600452F5D2F38300A128A11F4250A128A116D
:100E960083120313861E502F512F4B2F0230F5005D
:100EA6008630F4009930F300F30B572FF40B572FCD
:100EB600F50B572F83120313061B622F632F7B2F0D
:100EC60030300A128A11F4250A128A11831203138A
:100ED600061F6E2F6F2F692F0230F5008630F40043
:100EE6009930F300F30B752FF40B752FF50B752F57
:100EF600831203130614861406118619832F842F72
:100F06009C2F33300A128A11F4250A128A11831291
:100F16000313861D8F2F902F8A2F0230F5008630FF
:100F2600F4009930F300F30B962FF40B962FF50B84
:100F3600962F83120313061AA12FA22FBA2F36302B
:100F46000A128A11F4250A128A1183120313061E45
:100F5600AD2FAE2FA82F0230F5008630F400993061
:100F6600F300F30BB42FF40BB42FF50BB42F83124D
:100F76000313861ABF2FC02FD82F39300A128A11B1
:100F8600F4250A128A1183120313861ECB2FCC2F47
:100F9600C62F0230F5008630F4009930F300F30BCB
:100FA600D22FF40BD22FF50BD22F83120313061B6D
:100FB600DD2FDE2FF62F23300A128A11F4250A12AE
:100FC6008A1183120313061FE92FEA2FE42F02303A
:100FD600F5008630F4009930F300F30BF02FF40B94
:100FE600F02FF50BF02F8312031306148614061543
:0A0FF600080083010A128A114D2E33
:02400E003A3F37
:00000001FF
