:100000000A128A11F12F00308A000408840A82073C
:10001000003445344534503452344F344D34203458
:0E002000563441344C34553445343A340034AF
:100A3C0064008001840A04060319003404061F2D87
:100A4C00F2007208831203178D007F308316031790
:100A5C008C050C14831203170C08F000F1017008BC
:100A6C0083120313B4007108B50008007008F2007B
:100A7C00412D0130F007700884000A128A110320FE
:100A8C000A128A11003A031D4C2D4D2D3F2D720870
:100A9C007002F000F101F01BF1030800F100700886
:100AAC00831203178D0071088C007F308316031797
:100ABC008C050C1555308D00AA308D008C148312CA
:100ACC0003130D1E6A2D6B2D652D0D120800F200FF
:100ADC00831203138715720888000714D630F000B0
:100AEC00772D782DF00B762D0000FE30831203133A
:100AFC0087050430F100E430F000F00B832DF10B8E
:100B0C00832D00000800F200F730831203138705D1
:100B1C00720888000714D630F000942D952DF00B38
:100B2C00932D0000FE308312031387050430F1006F
:100B3C00E430F000F00BA02DF10BA02D000008000C
:100B4C00700871040319AB2DAC2DD92D0130F400B4
:100B5C00B82D01300310F00DF10DFF3E031DB02D2B
:100B6C000130F407F11FBB2DBC2DAF2D71087302A2
:100B7C00031DC22D70087202031CC52DC62DCC2D71
:100B8C007008F2027108031CF303F3020130031026
:100B9C00F10CF00CFF3E031DCD2D0130F402031DB2
:100BAC00D82DD92DBC2D7308F1007208F000080067
:100BBC00F401F501700871040319E52DE62D1B2EC7
:100BCC000130F600F22D01300310F00DF10DFF3E57
:100BDC00031DEA2D0130F607F11FF52DF62DE92D39
:100BEC0001300310F40DF50DFF3E031DF72D7108B8
:100BFC007302031D032E70087202031C062E072EAF
:100C0C000E2E7008F2027108031CF303F302741425
:100C1C0001300310F10CF00CFF3E031D0F2E0130C0
:100C2C00F602031D1A2E1B2EF62D7508F100740802
:100C3C00F000080083160313870188018312031345
:100C4C008801F030831603138600F03083120313EF
:100C5C00860038300A128A1189250A128A110A3044
:100C6C00F400BC30F300F30B392EF40B392E0000DA
:100C7C000C300A128A1189250A128A110A30F400E2
:100C8C00BC30F300F30B482EF40B482E000006305A
:100C9C000A128A1189250A128A110A30F400BC3012
:100CAC00F300F30B572EF40B572E000001300A12F1
:100CBC008A1189250A128A110A30F400BC30F3001B
:100CCC00F30B662EF40B662E000008000A128A1134
:100CDC0020260A128A1180300A128A1189250A12DA
:100CEC008A11013083120313BC00B801B901932E91
:100CFC0038083C0784000A128A1103200A128A1150
:100D0C000A128A116D250A128A11013083120313FB
:100D1C00B8070318B90A0030B9073C08F0000A12EA
:100D2C008A113C250A128A117108831203133902A5
:100D3C00031DA22E70083802031CA52EA62E7E2E93
:100D4C00F00100300A128A1154250A128A11F0019E
:100D5C00F00A01300A128A1154250A128A11023043
:100D6C00F00004300A128A1154250A128A11033039
:100D7C00F00009300A128A1154250A128A11043023
:100D8C00F00010300A128A1154250A128A1105300B
:100D9C00F00019300A128A1154250A128A110630F1
:100DAC00F00024300A128A1154250A128A110730D5
:100DBC00F00031300A128A1154250A128A110830B7
:100DCC00F00040300A128A1154250A128A11093097
:100DDC00F00051300A128A1154250A128A110A3075
:100DEC00F00064300A128A1154250A128A110B3051
:100DFC00F00079300A128A1154250A128A110C302B
:100E0C00F00090300A128A1154250A128A110D3002
:100E1C00F000A9300A128A1154250A128A110E30D8
:100E2C00F000C4300A128A1154250A128A110F30AC
:100E3C00F000E1300A128A1154250A128A11831229
:100E4C000313BD01BE01831203133D080A128A115C
:100E5C0026250A128A110230F9008630F8009930E2
:100E6C00F700F70B372FF80B372FF90B372F8312AF
:100E7C000313BA01BB01C0300A128A1189250A1268
:100E8C008A1120300A128A116D250A128A1120301B
:100E9C000A128A116D250A128A1120300A128A113F
:100EAC006D250A128A1120300A128A116D250A1238
:100EBC008A11C0300A128A1189250A128A1100304F
:100ECC008312031335020A300319340203186F2FEF
:100EDC00702FAF2F3408303E0A128A116D250A127A
:100EEC008A11D82F0A30F0000030F1003508F300D9
:100EFC003408F2000A128A11A6250A128A11710806
:100F0C0083120313B7007008B6000A30F0000030EB
:100F1C00F1003508F3003408F2000A128A11DE25BC
:100F2C000A128A11710883120313B5007008B400F9
:100F3C003A08F7007707203E8400360883138000B8
:100F4C00840A370880000130BA070318BB0A003046
:100F5C00BB0734083504031DB42FB52F782F3A087E
:100F6C00FF3EBF003B080318013EFF3EC000C01F00
:100F7C00C02FC12FC22FD82F3F08F7007707203E74
:100F8C00840083130008303E0A128A116D250A1260
:100F9C008A11FF3083120313BF070318C00AFF30F6
:100FAC00C007BD2F013083120313BD070318BE0AFF
:100FBC000030BE073E08803AFF0080307F02031DE0
:100FCC00E92F10303D02031CEC2FED2F292F252F7C
:100FDC000A128A110028FA01FB01831320308400C5
:100FEC0036300A128A111E250A128A1183010A123E
:040FFC008A116C2EBC
:02400E003B3F36
:00000001FF
