:100000000A128A11FA2F00308A000408840A820733
:100010000034523458343A342034273400345434C1
:0A00200058343A34203427340034F9
:100DC00001300A128A11F0260A128A110430F40046
:100DD000E430F300F30BEA2EF40BEA2E00000800D7
:100DE000F2007208831203138800861186140430FF
:100DF000F100E430F000F00BFB2EF10BFB2E0000B5
:100E00008312031386100800F20072088312031382
:100E10008800861586140430F100E430F000F00BF1
:100E20000F2FF10B0F2F0000831203138610080001
:100E3000C0308316031387002030980009309900D2
:100E400090308312031398008316031388018611D0
:100E50008610831203138801080038300A128A11A1
:100E6000F0260A128A110C300A128A11F0260A1290
:100E70008A1101300A128A11F0260A128A110630EC
:100E80000A128A11F0260A128A110430F400E430A2
:100E9000F300F30B492FF40B492F000008007403F3
:100EA000031D532F542F5B2F80300A128A11F02616
:100EB0000A128A11762F02307406031D602F612FEB
:100EC000762FC0300A128A11F0260A128A11762F64
:100ED000730884000A128A1103200A128A110A1266
:100EE0008A1104270A128A110130F307730884005B
:100EF0000A128A1103200A128A11003A031D812F57
:100F0000822F682F08000A128A1118270A128A11E4
:100F10000A128A112D270A128A11831203138C1EBA
:100F2000922F932F8D2F1A08F8000A128A11E026AB
:100F30000A128A110130F300F401F40A0A128A112C
:100F40004F270A128A1178080A128A1104270A12F6
:100F50008A1127300A128A1104270A128A11BE2F19
:100F60006130F700CC2F6230F700CC2F6330F700F0
:100F7000CC2F6430F700CC2FF701CC2F7808413A02
:100F80000319B02F033A0319B32F013A0319B62FEF
:100F9000073A0319B92FBC2F77080319D02FD12F87
:100FA0008D2F831203130C1ED62FD72FD12F770826
:100FB0009900C330F600CD30F500F50BDD2FF60BB0
:100FC000DD2F0730F3000230F4000A128A114F2798
:100FD0000A128A1177080A128A1104270A128A1142
:100FE00027300A128A1104270A128A118D2F0A1239
:100FF0008A110028F701F80183010A128A11832F50
:02400E003A3F37
:00000001FF
