:060000000A128A11BF2F55
:100EF000FC346034DA34F2346634B634BE34E03470
:100F0000FE34F6347E088A007F0882000A128A11B5
:100F100082270A128A118000840A04087D060319B8
:100F20000034FF0A0319FE0A862F83160313860175
:100F30007F308105FF30831203138600FD017D0899
:100F4000703E840000098312031386000830FC0001
:100F50009D30FB000530FA00FA0BAC2FFB0BAC2FD9
:100F6000FC0BAC2FB32F0130FD070A307D02031CB0
:100F7000BA2FBB2F9F2F9E2F0A128A1100280A1208
:100F80008A1178270A128A11F0000A128A11792729
:100F90000A128A11F1000A128A117A270A128A119A
:100FA000F2000A128A117B270A128A11F3000A1230
:100FB0008A117C270A128A11F4000A128A117D27ED
:100FC0000A128A11F5000A128A117E270A128A1162
:100FD000F6000A128A117F270A128A11F7000A12F4
:100FE0008A1180270A128A11F8000A128A118127B1
:100FF0000A128A11F900FD0183010A128A11952F44
:02400E003A3F37
:00000001FF
