:060000000A128A11F02F24
:100F840001340034F430F2000130F3000130F20295
:100F94000030031CF303F30272087304031DD32F00
:100FA400D42FC82F831203138619D92FDA2FE42FD5
:100FB40070037104031DDF2FE02FE42FF001F10112
:100FC40001308806861DE72FE82FC42F0130F0007A
:100FD4000030F100C42F0A128A1100280A128A1163
:100FE400C2270A128A11F0000A128A11C3270A12B0
:0C0FF4008A11F10083010A128A11C42F37
:02400E00FB3F76
:00000001FF
