:060000000A128A11CF2F45
:10000C00F800F401F5017008F200F3017208F60033
:10001C007308F700781C132814281A287608F4079C
:10002C000318F50A7708F50701300310F60DF70DE4
:10003C00FF3E031D1B280310F80C7808031D27280E
:10004C00282810287508F1007408F0000800F80042
:10005C0078080319322833284728F31F3628372805
:10006C0047287009FA007109FB007209FC0073093A
:10007C00FD00FA0A0319FB0A0319FC0A0319FD0A0D
:10008C004F287308FD007208FC007108FB00700813
:10009C00FA007308720471047004031D5628572863
:1000AC0060280030F3000030F2000030F100003026
:1000BC00F000E0289630F9006E280130F907013085
:1000CC000310FD0CFC0CFB0CFA0CFF3E031D662808
:1000DC00FE307D05031D7328742863288E2801309B
:1000EC00F9070130FA07003003180130FB07003024
:1000FC0003180130FC07003003180130FD070130F4
:10010C000310FD0CFC0CFB0CFA0CFF3E031D8628A7
:10011C00FF307D05031D932894287528A0280130F5
:10012C00F9020130F4000310FA0DFB0DFC0DFD0D6E
:10013C00F40B9928FC1BA328A428AA2802307902C6
:10014C000318A928AA2895287918AD28AE28B6280E
:10015C00FF30FA05FF30FB057F30FC05FF30FD0555
:10016C000310F90C7908F400F501F601F7011830C9
:10017C000310F40DF50DF60DF70DFF3E031DBE2813
:10018C007408FA047508FB047608FC047708FD046F
:10019C0078080319D228D328D828F31FD628D728B3
:1001AC00D828FD177D08F3007C08F2007B08F100CD
:1001BC007A08F0000800831203130608E800F030F8
:1001CC00E805222AC33083120313DD00CC30DC0097
:1001DC00DC0BEE28DD0BEE28000080300A128A15AD
:1001EC00B5230A128A1183120313DE01DF015E08A4
:1001FC00CD3E8400831300080A128A1599230A1233
:10020C008A11013083120313DE070318DF0A003052
:10021C00DF0700305F02093003195E02031C172947
:10022C001829FD288C300A128A15B5230A128A1156
:10023C000D3083120313E0000030E1006008CD3E66
:10024C008400831300080A128A1599230A128A1152
:10025C00013083120313E0070318E10A0030E107B1
:10026C00003061020F3003196002031C3E293F2944
:10027C00242988300A128A15B5230A128A1183128E
:10028C0003136F08D7006E08D6006D08D5006C08F4
:10029C00D4000A128A150B260A128A110A128A1520
:1002AC00B1260A128A11302AC33083120313DD00DF
:1002BC00CC30DC00DC0B6029DD0B602900003D300C
:1002CC00F300CC30F200CC30F100CD30F0008312D2
:1002DC0003136F08F7006E08F6006D08F5006C0844
:1002EC00F4000A128A1131220A128A11730883123D
:1002FC000313EF007208EE007108ED007008EC00BB
:10030C004130F300DC30F2000030F1000030F0003E
:10031C006F08F7006E08F6006D08F5006C08F40025
:10032C000A128A1569250A128A1103189E299F2917
:10033C00A929413083120313EF00DC30EE000030AA
:10034C00ED000030EC0088300A128A15B5230A1231
:10035C008A114529C33083120313DD00CC30DC0035
:10036C00DC0BB629DD0BB62900003D3083120313DC
:10037C00AB00CC30AA00CC30A900CD30A8006F085F
:10038C00AF006E08AE006D08AD006C08AC000A1230
:10039C008A15D2230A128A11831203132B08EF0039
:1003AC002A08EE002908ED002808EC006F08F3007D
:1003BC006E08F2006D08F1006C08F0004130F70097
:1003CC007830F6000030F5000030F4000A128A157F
:1003DC0069250A128A110318F429F529FF294130DD
:1003EC0083120313EF007830EE000030ED00003084
:1003FC00EC0088300A128A15B5230A128A11452995
:10040C00C33083120313DD00CC30DC00DC0B0C2A70
:10041C00DD0B0C2A0000413083120313EF007830FF
:10042C00EE000030ED000030EC0088300A128A1526
:10043C00B5230A128A1145296808703A0319062A4D
:10044C00C03A0319B029603A03195A29303A0319F2
:10045C00E828302A08007308F8008030F805730883
:10046C0083120313A0002007FA00F21F3E2A3F2A32
:10047C00402A7A147A080319442A452A552A7A0AFA
:10048C00031D492A4A2A522A0030F3000030F20098
:10049C000030F1000030F000F217F3015D2A00305B
:1004AC00F3000030F2000030F1000030F00077086B
:1004BC00F9008030F905790878060319662A672A4D
:1004CC00682A78177708A0002007F900F61F6F2A12
:1004DC00702A712A791479080319752A762A862AC2
:1004EC00790A031D7A2A7B2A832A0030F700003010
:1004FC00F6000030F5000030F400F617F7018E2AF4
:10050C000030F7000030F6000030F5000030F40049
:10051C007A0879020318932A942AB82A781F972A02
:10052C00982A9A2A8030F8067A08FB007908FA0093
:10053C007B08F9007008FB007408F0007B08F400DD
:10054C007108FB007508F1007B08F5007208FB00D0
:10055C007608F2007B08F6007308FB007708F300BE
:10056C007B08F700FB017908A000A1012108A3007A
:10057C007A082002A200031CA3032308803AFF0080
:10058C0080307F02031DCC2A1A302202031CCF2A92
:10059C00D02A072B7308720471047004031DD72A28
:1005AC00D92A0130DA2A0030FB000030F300003089
:1005BC00F2000030F1000030F0007908FA000D2B49
:1005CC007B1CE92AEA2AF32A7B0883120313A00076
:1005DC000310200C0138FB00F52A0310FB0C701CD7
:1005EC00F82AF92AFA2AFB17013083120313A00008
:1005FC00730DF30CF20CF10CF00CA00BFE2A013075
:10060C00FA0779087A02031C0C2B0D2BE62A781BAF
:10061C00102B112B5C2B7A08031D152B162B1F2B63
:10062C000030F3000030F2000030F1000030F00038
:10063C008C2C7408F007750803110318013E03197C
:10064C00282BF107760803110318013E03192F2BF1
:10065C00F207770803110318013E0319362BF30731
:10066C00731C392B3A2B142C7B1C3D2B3E2B472B0C
:10067C007B0883120313A0000310200C0138FB002D
:10068C00492B0310FB0C701C4C2B4D2B4E2BFB17CA
:10069C00013083120313A000730DF30CF20CF10C58
:1006AC00F00CA00B522B0130FA07142C7308803A73
:1006BC00FF007708803A7F02031D6E2B76087202CA
:1006CC00031D6E2B75087102031D6E2B74087002CE
:1006DC000318712B722BCB2BFF3083120313A0004A
:1006EC00FF30A100FF30A200FF30A3007408A4006B
:1006FC007508A5007608A6007708A7007008A40264
:10070C007108031C710F8B2B8C2BA5027208031C18
:10071C00720F912B922BA6027308031C730F972B4D
:10072C00982BA7022408A00725080318250F9F2B38
:10073C00A02BA10726080318260FA52BA62BA20772
:10074C0027080318270AA3072308F3002208F2003E
:10075C002108F1002008F0008030F8067B03FF3AF6
:10076C00FB007B08031DBB2BBC2BD92B0130F007E6
:10077C00003003180130F107003003180130F20784
:10078C00003003180130F307D92B7408F0027508F8
:10079C00031C750FF1027608031C760FF202770822
:1007AC00031C770FF3027308720471047004031DA9
:1007BC00E02BE12B102C7B08031DE52BE62B102CDA
:1007CC000030F3000030F2000030F1000030F00097
:1007DC008C2C013083120313A0000310F00DF10DCB
:1007EC00F20DF30DA00BF32BFB1FFD2BFE2BFF2BA0
:1007FC0070147B1C022C032C072C03147B0DFB00A8
:10080C00092C0310FB0D7A0803190D2C0E2C102C3F
:10081C000130FA02F21F132C142CEF2BF901FB1FE1
:10082C00182C192C272C7B087F3903191E2C1F2CF4
:10083C00222C0130F900272C701C252C262C272C5F
:10084C001F2C790803192B2C2C2C602C0130F00751
:10085C00003003180130F107003003180130F207A3
:10086C00003003180130F307731C3D2C3E2C602C18
:10087C00700883120313A0007108A1007208A20073
:10088C007308A3000130A400230DA30CA20CA10C2F
:10089C00A00CA40B4A2C2308F3002208F200210818
:1008AC00F1002008F0007A0A03195D2C5E2C602CF4
:1008BC000130FA077A0A0319642C652C6A2C7A0821
:1008CC00031D692C6A2C782C0030F3000030F200E8
:1008DC000030F1000030F0007A08031D762C772CE4
:1008EC00782CF8017A1C7B2C7C2C7E2CF217802C1B
:1008FC007F30F2057A0883120313A0000310200C3A
:10090C00F300F81F8A2C8B2C8C2CF3170800831205
:10091C0003133308BD008030BD053308B800380719
:10092C00C300B21F9A2C9B2C9C2C43144308031914
:10093C00A02CA12CB02C430A031DA52CA62CAE2C4C
:10094C000030B3000030B2000030B1000030B00015
:10095C00B217B82C0030B3000030B2000030B10038
:10096C000030B00037088039BD063708B8003807AA
:10097C00C200B61FC22CC32CC42C4214420803194B
:10098C00C82CC92CD82C420A031DCD2CCE2CD62C0D
:10099C000030B7000030B6000030B5000030B400B5
:1009AC00B617E02C0030B7000030B6000030B500B0
:1009BC000030B40042080319E42CE52CEA2C43085F
:1009CC00031DE92CEA2CF32C0030B3000030B200EC
:1009DC000030B1000030B000CE2F3008F0003608E7
:1009EC000A128A1106200A128A1171088312031343
:1009FC00C9007008C8004808B800B901BA01BB01A9
:100A0C003B08C1003A08C0003908BF003808BE00D6
:100A1C004908B800B901BA01BB013B08C7003A0844
:100A2C00C6003908C5003808C4003108F000350884
:100A3C000A128A1106200A128A11710883120313F2
:100A4C00C9007008C8004808B800B901BA01BB0158
:100A5C003808BE07390803110318013E0319372D56
:100A6C00BF073A0803110318013E03193E2DC007B6
:100A7C003B0803110318013E0319452DC107490812
:100A8C00B800B901BA01BB013808C4073908031111
:100A9C000318013E0319532DC5073A080311031817
:100AAC00013E03195A2DC6073B0803110318013EDA
:100ABC000319612DC7073208F00034080A128A1195
:100ACC0006200A128A11710883120313C9007008D8
:100ADC00C8004808B800B901BA01BB013808BE0704
:100AEC00390803110318013E03197D2DBF073A087D
:100AFC0003110318013E0319842DC0073B08031191
:100B0C000318013E03198B2DC1074908B800B90120
:100B1C00BA01BB013808C407390803110318013E98
:100B2C000319992DC5073A0803110318013E03193F
:100B3C00A02DC6073B0803110318013E0319A72D6E
:100B4C00C7070830B8000310BE0DBF0DC00DC10D96
:100B5C00B80BA92D3108F00034080A128A110620AE
:100B6C000A128A11710883120313C9007008C80095
:100B7C004808B8004908B900BA01BB013808BE07DB
:100B8C00390803110318013E0319CD2DBF073A088C
:100B9C0003110318013E0319D42DC0073B080311A0
:100BAC000318013E0319DB2DC1073008F00035088E
:100BBC000A128A1106200A128A1171088312031371
:100BCC00C9007008C8004808B8004908B900BA0143
:100BDC00BB013808BE07390803110318013E03197D
:100BEC00F82DBF073A0803110318013E0319FF2D16
:100BFC00C0073B0803110318013E0319062EC10759
:100C0C000830B8000310BE0DBF0DC00DC10DB80BE0
:100C1C00082E3008F00034080A128A1106200A1235
:100C2C008A11710883120313C9007008C8004808A0
:100C3C00B8004908B900BA01BB013808BE07390829
:100C4C0003110318013E03192C2EBF073A08031198
:100C5C000318013E0319332EC0073B080311031878
:100C6C00013E03193A2EC1073108F00036080A126A
:100C7C008A1106200A128A11710883120313C90003
:100C8C007008C8004808B8004908B900BA01BB018F
:100C9C003808C407390803110318013E0319572EED
:100CAC00C5073A0803110318013E03195E2EC60747
:100CBC003B0803110318013E0319652EC7073208C0
:100CCC00F00035080A128A1106200A128A117108DE
:100CDC0083120313C9007008C8004808B8004908FB
:100CEC00B900BA01BB013808C4073908031103184D
:100CFC00013E0319822EC5073A0803110318013E61
:100D0C000319892EC6073B0803110318013E03196A
:100D1C00902EC7073208F00036080A128A110620F6
:100D2C000A128A11710883120313C9007008C800D3
:100D3C004808B8004908B900BA01BB0108300310D3
:100D4C00B80DB90DBA0DBB0DFF3E031DA52E38080D
:100D5C00C407390803110318013E0319B62EC50741
:100D6C003A0803110318013E0319BD2EC6073B08B0
:100D7C0003110318013E0319C42EC7073E08B8001F
:100D8C003F08B9004008BA004108BB0018300310F6
:100D9C00BB0CBA0CB90CB80CFF3E031DCD2E380899
:100DAC00C407390803110318013E0319DE2EC507C9
:100DBC003A0803110318013E0319E52EC6073B0838
:100DCC0003110318013E0319EC2EC7070830B800B5
:100DDC000310BE0DBF0DC00DC10DB80BEE2E430898
:100DEC004207B800B901B90D3808823EC80039086D
:100DFC000318013EFF3EC900202F0130B80003103C
:100E0C00C40DC50DC60DC70DB80B052FC11F0F2F77
:100E1C00102F112F44140130B8000310BE0DBF0D5C
:100E2C00C00DC10DB80B132FFF30C8070318C90A2A
:100E3C00FF30C907C61F232F242F032FC201C11F48
:100E4C00282F292F452FFF303E05B800FF303F05D6
:100E5C00B900FF304005BA007F304105BB003B08AC
:100E6C003A043904380403193C2F3D2F402F01302C
:100E7C00C200452F441C432F442F452F3D2F4208C1
:100E8C000319492F4A2F7B2F0130C4070030031858
:100E9C000130C507003003180130C60700300318B5
:100EAC000130C707471C5B2F5C2F7B2F4408B80011
:100EBC004508B9004608BA004708BB000130BC0021
:100ECC003B0DBB0CBA0CB90CB80CBC0B662F3B0819
:100EDC00C7003A08C6003908C5003808C4000130FC
:100EEC00C8070318C90A0030C9074908803AFF002F
:100EFC0080307F02031D842FFF304802031C872F94
:100F0C00882F932F7F3083120313C7008030C600C5
:100F1C000030C5000030C400C42F831203134908ED
:100F2C00803AFF0080307F02031D9E2F0130480263
:100F3C000318A12FA22FAE2F003083120313C7006A
:100F4C000030C6000030C5000030C400BD01C42F05
:100F5C00831203134808C300FF30C405FF30C505D6
:100F6C007F30C6050030C705431CBD2FBE2FBF2FD9
:100F7C00C6174308B8000310380CC7003D08C70457
:100F8C004708B3004608B2004508B1004408B00059
:100F9C0008008313DC30FD000C30FE002E30FF0007
:100FAC00A03084000A128A158A230A128A11703022
:100FBC00FD000B30FE007430FF006C3084000A1210
:100FCC008A158A230A128A1183160313DC01DD01A8
:100FDC00DE01DF0183120313E201E301E401E50109
:100FEC00E601E701E801E901EA01EB0183010A12DC
:040FFC008A15782BAF
:1016E80000340034783441340A128A15AC240A12C2
:1016F8008A150A128A11E1200A128A157D2B0A120C
:101708008A1100287E088A007F0882000A128A153A
:1017180086230A128A158000840A04087D060319A4
:101728000034FF0A0319FE0A8A2BF20083120313FE
:101738008715720888000714D630F000A32BA42B55
:10174800F00BA22B0000FE30831203138705043030
:10175800F100E430F000F00BAF2BF10BAF2B0000E1
:101768000800F200F7308312031387057208880017
:101778000714D630F000C02BC12BF00BBF2B000094
:10178800FE308312031387050430F100E430F000C3
:10179800F00BCC2BF10BCC2B00000800803083120F
:1017A8000313AB062F08F3002E08F2002D08F100F2
:1017B8002C08F0002B08F7002A08F6002908F50085
:1017C8002808F4000A128A1131220A128A157308AD
:1017D80083120313AB007208AA007108A9007008ED
:1017E800A8000800700871040319FB2BFC2B292C96
:1017F8000130F400082C01300310F00DF10DFF3E0C
:10180800031D002C0130F407F11F0B2C0C2CFF2BAF
:1018180071087302031D122C70087202031C152C28
:10182800162C1C2C7008F2027108031CF303F30237
:1018380001300310F10CF00CFF3E031D1D2C01308C
:10184800F402031D282C292C0C2C7308F1007208B3
:10185800F0000800423441345434203448344934C8
:101868004734483400340034003400340034003441
:10187800003442344134543420344D3445344434F3
:10188800493455344D3400340034003400340034C5
:1018980042344134543420344C344F3457340034B7
:1018A800003400340034003400340034003442344E
:1018B80041345434203476346F346C3474343A34CC
:1018C800203420342034203456340034F401F50117
:1018D800700871040319712C722CA72C0130F600C2
:1018E8007E2C01300310F00DF10DFF3E031D762C08
:1018F8000130F607F11F812C822C752C0130031062
:10190800F40DF50DFF3E031D832C71087302031DB2
:101918008F2C70087202031C922C932C9A2C70083E
:10192800F2027108031CF303F3027414013003106C
:10193800F10CF00CFF3E031D9B2C0130F602031D39
:10194800A62CA72C822C7508F1007408F00008005A
:101958008316031387018801F0308600F030831264
:101968000313860038300A128A15B5230A128A151D
:101978000A30F400BC30F300F30BC02CF40BC02C7D
:1019880000000C300A128A15B5230A128A150A308B
:10199800F400BC30F300F30BCF2CF40BCF2C000079
:1019A80006300A128A15B5230A128A150A30F4007D
:1019B800BC30F300F30BDE2CF40BDE2C00000130FE
:1019C8000A128A15B5230A128A150A30F400BC30A7
:1019D800F300F30BED2CF40BED2C000008000310C2
:1019E800831203134C0D4D0DD3005308031DFD2C1A
:1019F800FE2C072D0030CD000030CC000030CB008D
:101A08000030CA00682D4A08CE004B08CF004C08A9
:101A1800D0004D08D1001F300310D10CD00CCF0CD2
:101A2800CE0CFF3E031D102D4E08D200CC17FF3000
:101A3800CA05FF30CB05FF30CC050030CD05963008
:101A4800D302D31F282D292D412D5308803A973EC4
:101A580003182F2D302D312DFE2C01300310CD0C05
:101A6800CC0CCB0CCA0CFF3E031D322D0130D30722
:101A7800031D3F2D402D312D582D20305302031CBE
:101A8800462D472D532DFE2C0130CE000310CA0DD4
:101A9800CB0DCC0DCD0DCE0B4A2D0130D302530802
:101AA800031D572D582D482D520803195C2D5D2D07
:101AB800682DCA09CB09CC09CD09CA0A0319CB0A72
:101AC8000319CC0A0319CD0A080000307005F80084
:101AD80000307105F90080307205FA007F30730517
:101AE800FB007B087A0479047804031D7C2D7D2D86
:101AF800852D0030F3000030F2000030F100003096
:101B0800F00000307405F80000307505F9008030E9
:101B18007605FA007F307705FB007B087A047904A4
:101B28007804031D982D992DA12D0030F700003061
:101B3800F6000030F5000030F400F31FA42DA52DA9
:101B4800C92D0030F8000030F9000030FA0080306C
:101B5800FB007008F8027108031C710FB42DB52D35
:101B6800F9027208031C720FBA2DBB2DFA02730812
:101B7800031C730FC02DC12DFB027B08F3007A08EC
:101B8800F2007908F1007808F000F71FCC2DCD2D70
:101B9800F12D0030F8000030F9000030FA008030F4
:101BA800FB007408F8027508031C750FDC2DDD2D89
:101BB800F9027608031C760FE22DE32DFA02770866
:101BC800031C770FE82DE92DFB027B08F7007A0844
:101BD800F6007908F5007808F4008030F3068030C4
:101BE800F70677087302031D032E76087202031D99
:101BF800032E75087102031D032E74087002031862
:101C0800062E072E092E03100A2E0314080083122D
:101C180003135708CD005608CC005508CB005408CC
:101C2800CA000A128A15F3240A128A1583120313AA
:101C38004B08DB004A08DA005708AF005608AE0028
:101C48005508AD005408AC005A08F0005B08F100D4
:101C5800F201F30100300A128A112D200A128A15A6
:101C6800730883120313AB007208AA007108A90055
:101C78007008A8000A128A15D2230A128A1583123C
:101C880003132B08B7002A08B6002908B50028084E
:101C9800B4004130B3002030B2000030B100003051
:101CA800B0000A128A118D240A128A1583120313AE
:101CB8003308CD003208CC003108CB003008CA0008
:101CC8000A128A15F3240A128A15831203134B0881
:101CD800D9004A08D80088300A128A15B5230A1292
:101CE8008A150A30F0000030F100831203135B08F4
:101CF800F3005A08F2000A128A156A240A128A1591
:101D08007008303E0A128A1599230A128A150A3079
:101D1800F0000030F100831203135B08F3005A0847
:101D2800F2000A128A15F6230A128A157008303E44
:101D38000A128A1599230A128A152E300A128A1550
:101D480099230A128A15831203135808303E0A127F
:101D58008A1599230A128A150800C0300A128A15B2
:101D6800B5230A128A1583120313A001A10120309A
:101D78000A128A1599230A128A150130831203134D
:101D8800A0070318A10A0030A1072108803AFF0024
:101D980080307F02031DD22E10302002031CD52E66
:101DA800D62EBB2EC0300A128A15B5230A128A1500
:101DB8004130F3007830F2000030F1000030F000DC
:101DC800831203136F08F7006E08F6006D08F5001C
:101DD8006C08F4000A128A1569250A128A15031874
:101DE800F62EF72E3D2F4130F3008C30F2000030F4
:101DF800F1000030F000831203136F08F7006E083B
:101E0800F6006D08F5006C08F4000A128A156925B9
:101E18000A128A15031C112F122F3D2FC0300A12E7
:101E28008A15B5230A128A1583120313A201A30186
:101E3800831203132208BE3E8400831300080A128B
:101E48008A1599230A128A15013083120313A207EF
:101E58000318A30A0030A3072308803AFF00803044
:101E68007F02031D392F07302202031C3C2F3D2F10
:101E78001C2F4130F3008C30F2000030F1000030AC
:101E8800F000831203136F08F7006E08F6006D0860
:101E9800F5006C08F4000A128A1569250A128A15D9
:101EA8000318572F582F9E2F4130F300A430F2000B
:101EB8000030F1000030F000831203136F08F700C0
:101EC8006E08F6006D08F5006C08F4000A128A1511
:101ED80069250A128A15031C722F732F9E2FC03092
:101EE8000A128A15B5230A128A1583120313A4014C
:101EF800A501831203132408AF3E8400831300084E
:101F08000A128A1599230A128A15013083120313BB
:101F1800A4070318A50A0030A5072508803AFF0082
:101F280080307F02031D9A2F0A302402031C9D2F44
:101F38009E2F7D2F4130F300A430F2000030F100D5
:101F48000030F000831203136F08F7006E08F600E4
:101F58006D08F5006C08F4000A128A1569250A1242
:101F68008A150318B82FB92FFF2F4130F300DC3042
:101F7800F2000030F1000030F000831203136F0804
:101F8800F7006E08F6006D08F5006C08F4000A12F8
:101F98008A1569250A128A15031CD32FD42FFF2FFF
:101FA800C0300A128A15B5230A128A158312031340
:101FB800A601A701831203132608A03E84008313F9
:101FC80000080A128A1599230A128A150130831209
:101FD8000313A6070318A70A0030A7072708803AA3
:101FE800FF0080307F02031DFB2F08302602031CF0
:081FF800FE2FFF2FDE2F080071
:02400E003B3F36
:00000001FF
