:060000000A128A11F22F22
:100B1400F200831203138615720888000614FE304F
:100B24008605C330F100CD30F000F00B972DF10BAA
:100B3400972D0800F200F73083120313860572081C
:100B440088000614FE308605C330F100CD30F00075
:100B5400F00BAA2DF10BAA2D0800700871040319DB
:100B6400B42DB52DE22D0130F400C12D0130031058
:100B7400F00DF10DFF3E031DB92D0130F407F11FF7
:100B8400C42DC52DB82D71087302031DCB2D70081B
:100B94007202031CCE2DCF2DD52D7008F2027108E0
:100BA400031CF303F30201300310F10CF00CFF3EBD
:100BB400031DD62D0130F402031DE12DE22DC52DB8
:100BC4007308F1007208F0000800F401F5017008E0
:100BD40071040319EE2DEF2D242E0130F600FB2DA8
:100BE40001300310F00DF10DFF3E031DF32D013014
:100BF400F607F11FFE2DFF2DF22D01300310F40D29
:100C0400F50DFF3E031D002E71087302031D0C2E0B
:100C140070087202031C0F2E102E172E7008F20299
:100C24007108031CF303F302741401300310F10C74
:100C3400F00CFF3E031D182E0130F602031D232E77
:100C4400242EFF2D7508F1007408F0000800003010
:100C5400FC000030FB000030FA000030F900701C8A
:100C6400342E352E4C2E7408F90775080311031819
:100C7400013E03193E2EFA07760803110318013EBC
:100C84000319452EFB07770803110318013E0319C6
:100C94004C2EFC070130F8000310F40DF50DF60D91
:100CA400F70DF80B4E2E01300310F30CF20CF10C7F
:100CB400F00CFF3E031D562E730872047104700479
:100CC400031D652E662E312E7C08F3007B08F2008E
:100CD4007A08F1007908F0000800FC010A30F000FD
:100CE4000030F1007808F3007708F2000A128A1144
:100CF400AF250A128A117008303EFB000A30F0005A
:100D04000030F1007808F3007708F2000A128A1123
:100D1400E7250A128A117108F8007008F7007708AD
:100D240078040319962E972EA82E0A30F00000306E
:100D3400F1007808F3007708F2000A128A11AF254F
:100D44000A128A117008303EFA00AA2E2030FA00E6
:100D54000A30F0000030F1007808F3007708F20060
:100D64000A128A11E7250A128A117108F80070081C
:100D7400F700770878040319C02EC12ED22E0A304A
:100D8400F0000030F1007808F3007708F2000A124E
:100D94008A11AF250A128A117008303EF900D42E48
:100DA4002030F90079080A128A118A250A128A1158
:100DB4007A080A128A118A250A128A117B080A12F1
:100DC4008A118A250A128A1108000A128A116827D0
:100DD4000A128A11831203131F151F19F22EF32E00
:100DE400EF2E1E08A800A9012808A2002908A300C4
:100DF400831603131E0883120313A800A9012808ED
:100E0400A0002908A1002208A900A8012008280799
:100E1400A40021080318210A2907A5002408F000CA
:100E24002508F100F201F3010030F7000030F6006C
:100E34000130F5005230F4000A128A1129260A12F0
:100E44008A11700883120313A8007108A90072089C
:100E5400AA007308AB000A300310AB0CAA0CA90C4F
:100E6400A80CFF3E031D2E2F2908A7002808A60062
:100E74002708A9002608A8000310A90CA80C031031
:100E8400A90CA80C2808950026080339A8000430EA
:100E94000310A80DFF3E031D4A2F1708CF3928045D
:100EA400970080300A128A119C250A128A11831233
:100EB40003132708F8002608F7000A128A116F2680
:100EC4000A128A11EC2E0A128A11002883160313BF
:100ED400860188018312031388018601FB3083167F
:100EE400031387000C30831203139700063092001B
:100EF4005E3083160313920030300A128A119C2547
:100F04000A128A11C330F400CD30F300F30B882F9A
:100F1400F40B882F30300A128A119C250A128A1188
:100F2400C330F400CD30F300F30B962FF40B962F5F
:100F340030300A128A119C250A128A11C330F40037
:100F4400CD30F300F30BA42FF40BA42F38300A1286
:100F54008A119C250A128A11C330F400CD30F300A3
:100F6400F30BB22FF40BB22F06300A128A119C2510
:100F74000A128A11C330F400CD30F300F30BC02FF2
:100F8400F40BC02F0C300A128A119C250A128A1104
:100F9400C330F400CD30F300F30BCE2FF40BCE2F7F
:100FA40001300A128A119C250A128A11C330F400F6
:100FB400CD30F300F30BDC2FF40BDC2F8E308316D3
:100FC40003139F008130831203139F001430F40035
:100FD4007930F300F30BEC2FF40BEC2FF12F080016
:100FE40083120313A001A101A201A301A401A5017D
:0C0FF400A601A70183010A128A11E72E52
:02400E003B3F36
:00000001FF
