:060000000A128A11F32F21
:100B800064008001840A0406031900340406C12DA0
:100B9000F201F301D12D0130F2070318F30A0030FE
:100BA000F30771087302031DD72D70087202031C2E
:100BB000DA2DDB2DCB2D0800F200831203138715ED
:100BC000720888000714D630F000E62DE72DF00BF0
:100BD000E52D0000FE308312031387050430F10079
:100BE000E430F000F00BF22DF10BF22D00000800C4
:100BF000F200F73083120313870572088800071488
:100C0000D630F000032E042EF00B022E0000FE3032
:100C10008312031387050430F100E430F000F00B79
:100C20000F2EF10B0F2E00000800FB01FC01771CBA
:100C30001A2E1B2E212E7908FB070318FC0A7A08AE
:100C4000FC0701300310F90DFA0DFF3E031D222EA3
:100C500001300310F80CF70CFF3E031D292E770816
:100C60007804031D342E352E172E7C08F8007B08DF
:100C7000F7000800F401F501700871040319412E12
:100C8000422E772E0130F6004E2E01300310F00D6B
:100C9000F10DFF3E031D462E0130F607F11F512EC8
:100CA000522E452E01300310F40DF50DFF3E031DAD
:100CB000532E71087302031D5F2E70087202031C0D
:100CC000622E632E6A2E7008F2027108031CF30371
:100CD000F302741401300310F10CF00CFF3E031DFD
:100CE0006B2E0130F602031D762E772E522E7508DC
:100CF000F1007408F00008008316031387018801CF
:100D0000F0308600F03083120313860038300A1268
:100D10008A11F8250A128A110A30F400BC30F30057
:100D2000F30B902EF40B902E00000C300A128A1157
:100D3000F8250A128A110A30F400BC30F300F30BD4
:100D40009F2EF40B9F2E000006300A128A11F82500
:100D50000A128A110A30F400BC30F300F30BAE2EF5
:100D6000F40BAE2E000001300A128A11F8250A1287
:100D70008A110A30F400BC30F300F30BBD2EF40BE3
:100D8000BD2E000008000A128A117C260A128A1160
:100D90008E30831603139F008130831203139F004C
:100DA000831603130514831203131F150A30F00072
:100DB0000030F1000A128A11C8250A128A11831222
:100DC00003131F19E42EE52EDF2E1E08C300C401F5
:100DD0004308B2004408B300831603131E088312AD
:100DE0000313C300C4014308B0004408B100320833
:100DF000C400C30130084304AC0031084404AD0012
:100E00002D08F8002C08F7003030F9000030FA0007
:100E10000A128A1115260A128A11770883120313FF
:100E2000C3007808C4000A300310C40CC30CFF3E92
:100E3000031D142F4308AE004408AF0080300A128F
:100E40008A11F8250A128A11831203132F08B5009C
:100E50002E08B4000A128A113D270A128A1127307F
:100E600083120313C400F430C300C30B352FC40B2B
:100E7000352F00000A128A11002801308312031353
:100E8000BF000030C0003508C2003408C1008B2FFD
:100E90000A30F0000030F1004208F3004108F2008F
:100EA0000A128A113A260A128A117108F80070088B
:100EB000F700F630F900FF30FA000A128A11152601
:100EC0000A128A118312031341087707B8004208F7
:100ED0000318420A7807B9003F083A3E84003808F0
:100EE000831380000130BF070318C00A0030C00719
:100EF0000A30F0000030F1004208F3004108F2002F
:100F00000A128A113A260A128A11710883120313EF
:100F1000C2007008C10041084204031D902F912FA8
:100F2000482F3F083A3E840083138001FF30BF07FB
:100F30000318C00AFF30C0073C080319A02FA12FD7
:100F4000C02F80300A128A11F8250A128A118312E2
:100F500003133C08303E0A128A11DC250A128A115A
:100F600081300A128A11F8250A128A11831203139A
:100F70003B08303E0A128A11DC250A128A11DB2F47
:100F800080300A128A11F8250A128A1120300A12BA
:100F90008A11DC250A128A1181300A128A11F82579
:100FA0000A128A11831203133B08303E0A128A1177
:100FB000DC250A128A1182300A128A11F8250A12D7
:100FC0008A1176300A128A11DC250A128A110A3037
:100FD00083120313B700BB30B600B60BED2FB70B6F
:100FE000ED2FF22F080083132030840034300A12D2
:100FF0008A11C0250A128A1183010A128A11C32E8E
:02400E003B3F36
:00000001FF
