:060000000A128A11F42F20
:1009DC00F200831203138711720888000714D630B3
:1009EC00F000F82CF92CF00BF72C000083120313F9
:1009FC0007100430F100E430F000F00B032DF10B84
:100A0C00032D00000800F2008312031387157208EF
:100A1C0088000714D630F000132D142DF00B122D76
:100A2C0000008312031307100430F100E430F000CF
:100A3C00F00B1E2DF10B1E2D000008008316031366
:100A4C008701880138300A128A11EE240A128A11A1
:100A5C000C300A128A11EE240A128A1106300A127C
:100A6C008A11EE240A128A1101300A128A11EE241C
:100A7C000A128A110A30F400BC30F300F30B442D37
:100A8C00F40B442D000008007708780403194F2D4F
:100A9C00502D7D2D0130FB005C2D01300310F70D26
:100AAC00F80DFF3E031D542D0130FB07F81F5F2D81
:100ABC00602D532D78087A02031D662D7708790274
:100ACC00031C692D6A2D702D7708F9027808031C18
:100ADC00FA03FA0201300310F80CF70CFF3E031D69
:100AEC00712D0130FB02031D7C2D7D2D602D7A08AC
:100AFC00F8007908F7000800F401F501700871049A
:100B0C000319892D8A2DBF2D0130F600962D013049
:100B1C000310F00DF10DFF3E031D8E2D0130F60775
:100B2C00F11F992D9A2D8D2D01300310F40DF50D1B
:100B3C00FF3E031D9B2D71087302031DA72D70082A
:100B4C007202031CAA2DAB2DB22D7008F202710893
:100B5C00031CF303F302741401300310F10CF00CBA
:100B6C00FF3E031DB32D0130F602031DBE2DBF2D1C
:100B7C009A2D7508F1007408F00008000030FC0094
:100B8C000030FB000030FA000030F900701CCF2D53
:100B9C00D02DE72D7408F907750803110318013ED1
:100BAC000319D92DFA07760803110318013E03190E
:100BBC00E02DFB07770803110318013E0319E72DFD
:100BCC00FC070130F8000310F40DF50DF60DF70DD0
:100BDC00F80BE92D01300310F30CF20CF10CF00CB6
:100BEC00FF3E031DF12D7308720471047004031D84
:100BFC00002E012ECC2D7C08F3007B08F2007A0825
:100C0C00F1007908F0000800003083120313AB00E8
:100C1C000030AA000030A9000030A80023082204EC
:100C2C002104200403191B2E1C2E672E0130AC004E
:100C3C002A2E0130FD000310A00DA10DA20DA30D55
:100C4C00FD0B212E0130AC07A31F2D2E2E2E1F2E97
:100C5C000130FD000310A80DA90DAA0DAB0DFD0B65
:100C6C00302E23082702031D452E22082602031DC1
:100C7C00452E21082502031D452E20082402031CA5
:100C8C00482E492E582E2008A4022108031C210F9F
:100C9C00A5022208031C220FA6022308031C230F03
:100CAC00A702281401300310A30CA20CA10CA00C59
:100CBC00FF3E031D592E0130AC02031D662E672E1C
:100CCC002E2E2B08A3002A08A2002908A100280810
:100CDC00A00008000A30F7000030F800E830F000FF
:100CEC000330F1007D08F3007C08F2000A128A112F
:100CFC0082250A128A117108FA007008F9000A128A
:100D0C008A114A250A128A117708303E0A128A1172
:100D1C0009250A128A110A30F7000030F8006430F5
:100D2C00F0000030F1007D08F3007C08F2000A129C
:100D3C008A1182250A128A117108FA007008F900CA
:100D4C000A128A114A250A128A117708303E0A12B1
:100D5C008A1109250A128A110A30F7000030F800AE
:100D6C000A30F0000030F1007D08F3007C08F2003E
:100D7C000A128A1182250A128A117108FA00700867
:100D8C00F9000A128A114A250A128A117708303E94
:100D9C000A128A1109250A128A110A30F70000304A
:100DAC00F8007D08FA007C08F9000A128A114A251D
:100DBC000A128A117708303E0A128A1109250A1282
:100DCC008A1108000A128A1124250A128A1182300B
:100DDC00831603139F00FF308500813083120313A9
:100DEC009F00043083120313AE00E330AD00AD0B53
:100DFC00FD2EAE0BFD2E022F831203131F151F1990
:100E0C00082F092F052F1E08AD00AE012D08BA00C2
:100E1C002E08BB00831603131E0883120313AD00A8
:100E2C00AE012D08B8002E08B9003A08AE00AD018D
:100E3C0038082D04B00039082E04B1001430831288
:100E4C000313AE007930AD00AD0B2A2FAE0B2A2F59
:100E5C00A130831203139F00043083120313AE00DE
:100E6C00E330AD00AD0B382FAE0B382F3D2F831276
:100E7C0003131F151F19432F442F402F1E08AD00BD
:100E8C00AE012D08BA002E08BB00831603131E08F2
:100E9C0083120313AD00AE012D08B8002E08B90063
:100EAC003A08AE00AD0138082D04B20039082E0402
:100EBC00B3000030A3000030A2000330A100FF30CB
:100ECC00A0003208F0003308F100F201F301003009
:100EDC00F7000030F6000030F5008730F4000A12FD
:100EEC008A11C4250A128A11730883120313A700EE
:100EFC007208A6007108A5007008A4000A128A11D5
:100F0C000A260A128A11831203132108B50020083D
:100F1C00B40080300A128A11EE240A128A1143306E
:100F2C000A128A1109250A128A1148300A128A11EA
:100F3C0009250A128A1131300A128A1109250A125E
:100F4C008A113A300A128A1109250A128A1183125F
:100F5C0003133108FD003008FC000A128A117026B8
:100F6C000A128A11C0300A128A11EE240A128A114E
:100F7C0043300A128A1109250A128A1148300A12C2
:100F8C008A1109250A128A1132300A128A1109258E
:100F9C000A128A113A300A128A1109250A128A1188
:100FAC00831203133508FD003408FC000A128A1161
:100FBC0070260A128A11023083120313AF00863096
:100FCC00AE009830AD00AD0BE92FAE0BE92FAF0B97
:100FDC00E92F0000F32E0A128A1100288312031342
:100FEC00B601B701B801B901BA01BB0183010A12FC
:040FFC008A11E82E40
:02400E003B3F36
:00000001FF
