:060000000A128A110C280F
:10000800FE00030EF0000A08F1000A128A114528C2
:100018000A128A110F2883010A128A111328013043
:1000280083160313860088018312031388017F3027
:10003800831603138105011790308B000230831259
:10004800031386000230F4008630F3009930F20082
:10005800F20B2C28F30B2C28F40B2C2883120313F7
:1000680086010230F4008630F3009930F200F20B7A
:100078003B28F30B3B28F40B3B2822280A128A1151
:100088000C288B1C482849284F2801308312031359
:100098008806FD308B0571088A00700E8300FE0EFD
:0400A8007E0E0900BF
:02400E003B3F36
:00000001FF
