:060000000A128A11FC2F18
:100EF6000A128A1189270A128A110A128A11A4274C
:100F06000A128A11802F0A128A110028FB308316D2
:100F1600031387000C3083120313970006309200E8
:100F26002E308316031392000230F5000930F400C8
:100F36001C30F3000130F2002A30F1000130F000DD
:100F4600080074088312031395007508F600043030
:100F56000310F60DFF3E031DAB2F1708CF3976049D
:100F660097000830F8009D30F7000530F600F60BC4
:100F7600BA2FF70BBA2FF80BBA2FC12F73088312AB
:100F8600031395007208F60004300310F60DFF3EB9
:100F9600031DC82F1708CF39760497000830F800CC
:100FA6009D30F7000530F600F60BD72FF70BD72F3D
:100FB600F80BD72FDE2F71088312031395007008E4
:100FC600F60004300310F60DFF3E031DE52F17084B
:100FD600CF39760497000830F8009D30F7000530C9
:100FE600F600F60BF42FF70BF42FF80BF42FFB2F6C
:0A0FF600080083010A128A117B2F04
:02400E003B3F36
:00000001FF
