:060000000A128A110C280F
:10000800FE00030EF0000A08F1000A128A113E28C9
:100018000A128A110F28F60183010A128A1114287C
:100028008B170B178B160730831603138100C53007
:100038008312031381008316031386017608031DB8
:10004800262827282A2883120313061464307606E4
:10005800031D2F2830283328831203130610C830B5
:100068007606031D382839282228F60122280A1284
:100078008A110C280B1D4128422849280130F6070F
:100088000B11C53083120313810071088A00700EAA
:080098008300FE0E7E0E09003C
:02400E003B3F36
:00000001FF
