:100000000A128A11FC2F00308A000408840A820731
:100010000034483465346C346C346F3420347734B5
:0A0020006F3472346C346434003421
:100E3E000F30831603138805871107100A128A11C3
:100E4E0099270A128A1108000A128A111F270A12FC
:100E5E008A110130F4008030F5000A128A113D2704
:100E6E000A128A11392F0A128A110028F001750808
:100E7E000A128A1162270A128A11552FF001F00AFE
:100E8E00740884000A128A1103200A128A110A12A7
:100E9E008A1162270A128A110130F407740884003D
:100EAE000A128A1103200A128A11003A031D602FBA
:100EBE00612F452F0800F3007008031D672F6B2F5D
:100ECE008312031387156E2F831203138711730872
:100EDE00F03988000714A630F100F10B742F0000D2
:100EEE0083120313071073080F39F1000330031038
:100EFE00F10DFF3E031D7E2F0310710D88000714A8
:100F0E00A630F100F10B892F000083120313071096
:100F1E001A30F200F830F100F10B932FF20B932FF1
:100F2E0000000800C330F500CD30F400F40B9D2F07
:100F3E00F50B9D2FF00133300A128A1162270A1227
:100F4E008A111A30F500F830F400F40BAC2FF50BC3
:100F5E00AC2F0000F00133300A128A1162270A12F8
:100F6E008A11A630F400F40BBA2F0000F0013330D2
:100F7E000A128A1162270A128A11C52FC62F000083
:100F8E00F00102300A128A1162270A128A11A63063
:100F9E00F400F40BD02F0000F00128300A128A1151
:100FAE0062270A128A11A630F400F40BDC2F00001F
:100FBE00F00101300A128A1162270A128A110D30CD
:100FCE00F500FB30F400F40BEA2FF50BEA2FEF2FB0
:100FDE00F0010C300A128A1162270A128A11A63009
:100FEE00F400F40BF82F0000080083010A128A1196
:020FFE002B2F97
:00000001FF
