:060000000A128A11FC2F18
:100E9800831603130808F039880006080738860007
:100EA80008000A128A114C270A128A110A128A119A
:100EB8007E270A128A117108F6007008F50075037A
:100EC8007604031D682F692F5A2F103083120313DD
:100ED80086060330F4008A30F3005530F200F20B36
:100EE800732FF30B732FF40B732F7A2F5A2F0A12C9
:100EF8008A1100288312031388110815881408140E
:100F08000618872F882F8D2F0130F0000030F10050
:100F1800FB2F8618902F912F962F0230F00000306B
:100F2800F100FB2F0619992F9A2F9F2F0330F000FD
:100F38000030F100FB2F88150811881408140618D2
:100F4800A62FA72FAC2F0430F0000030F100FB2FA4
:100F58008618AF2FB02FB52F0530F0000030F10004
:100F6800FB2F0619B82FB92FBE2F0630F00000301E
:100F7800F100FB2F88150815881008140618C52FCE
:100F8800C62FCB2F0730F0000030F100FB2F86185A
:100F9800CE2FCF2FD42F0830F0000030F100FB2FD8
:100FA8000619D72FD82FDD2F0930F0000030F100B7
:100FB800FB2F88150815881408100618E42FE52F4C
:100FC800EA2F0A30F0000030F100FB2F8618ED2FD1
:100FD800EE2FF32F0B30F0000030F100FB2F061935
:100FE800F62FF72FFB2F0C30F0000030F10008002F
:080FF80083010A128A11552F32
:00000001FF
