:060000000A128A11FB2F19
:100F0C00F0308316031386008312031386018316B5
:100F1C00031388018312031388017F308316031394
:100F2C008105C0308700203098000930990090303E
:100F3C0083120313980008000A128A1186270A12DA
:100F4C008A11831203130608F600C02F4130990052
:100F5C00C330F500CD30F400F40BB22FF50BB22FEB
:100F6C00CE2F42309900AE2F43309900AE2F443033
:100F7C009900AE2F7608703A0319BD2FC03A0319A9
:100F8C00BA2F603A0319B72F303A0319AC2FCE2F72
:100F9C00831203138C1ED32FD42FA72F1A08F700FC
:100FAC00EA2F40308800C330F500CD30F400F40B4C
:100FBC00DD2FF50BDD2FA72F02308800D92F8801EC
:100FCC00D92F42308800D92F7708613A0319D72FCF
:100FDC00033A0319E22F013A0319E52F073A0319D3
:100FEC00E72FA72F0A128A110028F70183010A1292
:040FFC008A11A22F85
:02400E003B3F36
:00000001FF
