:060000000A128A11FB2F19
:100F78008316031388018312031388017F308316B5
:100F880003138105C030870020309800093099008C
:100F9800903083120313980008000A128A11BC27A4
:100FA8000A128A11831203138C1EDB2FDC2FD62F13
:100FB8001A08F400EA2F40308800D62F0230880043
:100FC800D62F8801D62F42308800D62F7408413A90
:100FD8000319DF2F033A0319E22F013A0319E52F0A
:100FE800073A0319E72FD62F0A128A110028F401AD
:080FF80083010A128A11D12FB6
:02400E003B3F36
:00000001FF
