:060000000A128A11DC2F38
:100C9E0064340034C83400340130F0020030031CD8
:100CAE00F103F10270087104031D5E2E5F2E532EA8
:100CBE000800F300831203138715730888000714C6
:100CCE00D630F2006A2E6B2EF20B692E0000FE302B
:100CDE008312031387050230F0000030F1000A1270
:100CEE008A1153260A128A110800F300F730831274
:100CFE0003138705730888000714D630F200872E79
:100D0E00882EF20B862E0000FE3083120313870509
:100D1E000230F0000030F1000A128A1153260A1236
:100D2E008A1108007008710403199E2E9F2ECC2E76
:100D3E000130F400AB2E01300310F00DF10DFF3E2B
:100D4E00031DA32E0130F407F11FAE2EAF2EA22EDF
:100D5E0071087302031DB52E70087202031CB82EA3
:100D6E00B92EBF2E7008F2027108031CF303F302B2
:100D7E0001300310F10CF00CFF3E031DC02E0130AC
:100D8E00F402031DCB2ECC2EAF2E7308F100720889
:100D9E00F00008000A128A110B270A128A11643019
:100DAE00FA000030FB0080300A128A117C260A12EB
:100DBE008A11C830F7000030F8000A128A118E2707
:100DCE000A128A112D300A128A1160260A128A110D
:100DDE006430F7000030F8000A128A118E270A12CA
:100DEE008A113D300A128A1160260A128A11643065
:100DFE00F7000030F8000A128A118E270A128A11A3
:100E0E00072F0A128A1100288316031387018801FF
:100E1E0038300A128A117C260A128A110530F00027
:100E2E000030F1000A128A1153260A128A110C3070
:100E3E000A128A117C260A128A110530F00000303F
:100E4E00F1000A128A1153260A128A1106300A126A
:100E5E008A117C260A128A110530F0000030F1004A
:100E6E000A128A1153260A128A1101300A128A11A5
:100E7E007C260A128A110530F0000030F1000A12A9
:100E8E008A1153260A128A110800F401F50170081E
:100E9E0071040319532F542F892F0130F600602F40
:100EAE0001300310F00DF10DFF3E031D582F0130E0
:100EBE00F607F11F632F642F572F01300310F40D27
:100ECE00F50DFF3E031D652F71087302031D712F73
:100EDE0070087202031C742F752F7C2F7008F2029B
:100EEE007108031CF303F302741401300310F10CA8
:100EFE00F00CFF3E031D7D2F0130F602031D882FDF
:100F0E00892F642F7508F1007408F0000800F901AC
:100F1E0077087804031D942F952FC32F30300A12B3
:100F2E008A1160260A128A11DB2F7908203E84006E
:100F3E000A30F0000030F1007808F3007708F20074
:100F4E000A128A1199260A128A117008303E8313EA
:100F5E0080000130F9070A30F0000030F100780807
:100F6E00F3007708F2000A128A114C270A128A112E
:100F7E007108F8007008F70077087804031DC82F71
:100F8E00C92F9C2FD62F0130F9027908203E8400FC
:100F9E00831300080A128A1160260A128A11790830
:100FAE00031DDA2FDB2FCA2F08000A128A114F26D3
:100FBE000A128A11A6000A128A1150260A128A11E2
:100FCE00A7000A128A1151260A128A11FC000A126F
:100FDE008A1152260A128A11FD00A001A101A20156
:100FEE00A301A401A501FA01FB0183010A128A11D2
:020FFE00D12EF2
:02400E003B3F36
:00000001FF
