:100000000A128A11FC2F00308A000408840A820731
:1000100000344C344334443420344F344B34203493
:100020005434453453345434003457344F345234F8
:0A0030004B3449344E344734003499
:100E9200F2008312031386117208880086140D3043
:100EA200F100FB30F000F00B542FF10B542F592FAF
:100EB2008312031386100800F200831203138615AF
:100EC2007208880086140D30F100FB30F000F00B40
:100ED200682FF10B682F6D2F831203138610080001
:100EE200802F730884000A128A1103200A128A11C1
:100EF2000A128A115D270A128A110130F307730858
:100F020084000A128A1103200A128A11003A031D70
:100F12008B2F8C2F722F0800F40074030319922F69
:100F2200932F9B2F7308BF3EF5000030031801304A
:100F3200F600A22F73087F3EF5000030031801303F
:100F4200F6007508F70077080A128A1149270A1273
:100F52008A1108000A128A11D2270A128A11F30191
:100F6200F30A01300A128A118D270A128A110130FE
:100F7200F3000A128A1171270A128A11F301F30A85
:100F820002300A128A118D270A128A110D30F300DB
:100F92000A128A1171270A128A11CE2F0A128A1195
:100FA2000028831603138801861186108312031307
:100FB20088018230F400DD30F300F30BDE2FF40BF6
:100FC200DE2FE32F38300A128A1149270A128A11BA
:100FD2000C300A128A1149270A128A1101300A12A8
:100FE2008A1149270A128A1106300A128A114927E0
:0E0FF2000A128A11080083010A128A11AB2F1D
:02400E003A3F37
:00000001FF
