:04000000FEEF7FF0A0
:10100000005072657373203120666F7220526564E0
:101010004C45442C203220666F722059656C6C6FF1
:10102000774C45442C203320666F722047726565EB
:101030006E4C45440D0A0057656C636F6D652074F6
:0D1040006F204E6577796F726B0D0A00000E
:10104E00760ED36E936A9268BBEC08F0060E046EB1
:10105E00130E036EAE0EE82EFED7032EFCD7042E13
:10106E00FAD7370E026EA1EC08F0010E026EA1EC5B
:10107E0008F0D2EC08F0066EAECF05F00650C7ECC5
:10108E0008F005C003F0070E03168A50F80B031084
:10109E008A6E80B055EF08F057EF08F05BEF08F05E
:1010AE00310E066E82EF08F080B260EF08F062EF4C
:1010BE0008F066EF08F0320E066E82EF08F080B48C
:1010CE006BEF08F06DEF08F071EF08F0330E066E5F
:1010DE0082EF08F082EF08F0010E816E91EF08F0BA
:1010EE00020E816E91EF08F0040E816E91EF08F002
:1010FE00816A91EF08F00650310AD8B473EF08F008
:10110E00030AD8B477EF08F0010AD8B47BEF08F0E1
:10111E007FEF08F0030E046E080E036E770EE82EB6
:10112E00FED7032EFCD7042EFAD7000040EF08F0AE
:10113E00FEEF7FF0ACEF08F002C0F6FF100EF76E78
:10114E000800F550C7EC08F0022A02C0F6FF100E98
:10115E00F76E0800F5500009D8A4B8EF08F0BAEF02
:10116E0008F0A3EF08F01200949C948E330EAF6E2D
:10117E00B06AAC98AC84B896AB8EAC8AAB881200D1
:10118E00016E9EA8CDEF08F0CFEF08F0C8EF08F083
:10119E0001C0ADFF12009EAAD7EF08F0D9EF08F0FC
:1011AE00D2EF08F0AE501200000EF86E000127EFDD
:0211BE0008F037
:04FFFC00DBEF08F03F
:020000040030CA
:0E000000FF08191EFF0381FF0FC00FE00F4025
:00000001FF
